{
  "contractName": "Config",
  "abi": [
    {
      "constant": false,
      "inputs": [],
      "name": "renounceConfig",
      "outputs": [],
      "payable": false,
      "stateMutability": "nonpayable",
      "type": "function"
    },
    {
      "constant": false,
      "inputs": [
        {
          "name": "account",
          "type": "address"
        }
      ],
      "name": "addConfig",
      "outputs": [],
      "payable": false,
      "stateMutability": "nonpayable",
      "type": "function"
    },
    {
      "constant": true,
      "inputs": [
        {
          "name": "account",
          "type": "address"
        }
      ],
      "name": "isConfig",
      "outputs": [
        {
          "name": "",
          "type": "bool"
        }
      ],
      "payable": false,
      "stateMutability": "view",
      "type": "function"
    },
    {
      "anonymous": false,
      "inputs": [
        {
          "indexed": true,
          "name": "account",
          "type": "address"
        }
      ],
      "name": "ConfigAdded",
      "type": "event"
    },
    {
      "anonymous": false,
      "inputs": [
        {
          "indexed": true,
          "name": "account",
          "type": "address"
        }
      ],
      "name": "ConfigRemoved",
      "type": "event"
    },
    {
      "constant": true,
      "inputs": [
        {
          "name": "key",
          "type": "string"
        }
      ],
      "name": "getConfigValue",
      "outputs": [
        {
          "name": "",
          "type": "uint256"
        }
      ],
      "payable": false,
      "stateMutability": "view",
      "type": "function"
    },
    {
      "constant": false,
      "inputs": [
        {
          "name": "key",
          "type": "string"
        },
        {
          "name": "value",
          "type": "uint256"
        }
      ],
      "name": "setConfigValue",
      "outputs": [
        {
          "name": "",
          "type": "uint256"
        }
      ],
      "payable": false,
      "stateMutability": "nonpayable",
      "type": "function"
    },
    {
      "constant": true,
      "inputs": [
        {
          "name": "key",
          "type": "string"
        }
      ],
      "name": "getOracleAddress",
      "outputs": [
        {
          "name": "",
          "type": "address"
        }
      ],
      "payable": false,
      "stateMutability": "view",
      "type": "function"
    },
    {
      "constant": false,
      "inputs": [
        {
          "name": "key",
          "type": "string"
        },
        {
          "name": "value",
          "type": "address"
        }
      ],
      "name": "setOracleAddress",
      "outputs": [
        {
          "name": "",
          "type": "address"
        }
      ],
      "payable": false,
      "stateMutability": "nonpayable",
      "type": "function"
    },
    {
      "constant": true,
      "inputs": [
        {
          "name": "key",
          "type": "string"
        }
      ],
      "name": "getTokenAddress",
      "outputs": [
        {
          "name": "",
          "type": "address"
        }
      ],
      "payable": false,
      "stateMutability": "view",
      "type": "function"
    },
    {
      "constant": false,
      "inputs": [
        {
          "name": "key",
          "type": "string"
        },
        {
          "name": "value",
          "type": "address"
        }
      ],
      "name": "setTokenAddress",
      "outputs": [
        {
          "name": "",
          "type": "address"
        }
      ],
      "payable": false,
      "stateMutability": "nonpayable",
      "type": "function"
    }
  ],
  "bytecode": "0x608060405261001c33610021640100000000026401000000009004565b610297565b6100428160006100886401000000000261122f179091906401000000009004565b8073ffffffffffffffffffffffffffffffffffffffff167f8bee45c273f264d9f17843d70b11b7113403f5aa55aff70f440a0f2bd847392a60405160405180910390a250565b6100a18282610174640100000000026401000000009004565b151515610116576040517f08c379a000000000000000000000000000000000000000000000000000000000815260040180806020018281038252601f8152602001807f526f6c65733a206163636f756e7420616c72656164792068617320726f6c650081525060200191505060405180910390fd5b60018260000160008373ffffffffffffffffffffffffffffffffffffffff1673ffffffffffffffffffffffffffffffffffffffff16815260200190815260200160002060006101000a81548160ff0219169083151502179055505050565b60008073ffffffffffffffffffffffffffffffffffffffff168273ffffffffffffffffffffffffffffffffffffffff1614151515610240576040517f08c379a00000000000000000000000000000000000000000000000000000000081526004018080602001828103825260228152602001807f526f6c65733a206163636f756e7420697320746865207a65726f20616464726581526020017f737300000000000000000000000000000000000000000000000000000000000081525060400191505060405180910390fd5b8260000160008373ffffffffffffffffffffffffffffffffffffffff1673ffffffffffffffffffffffffffffffffffffffff16815260200190815260200160002060009054906101000a900460ff16905092915050565b611338806102a66000396000f3fe608060405260043610610099576000357c0100000000000000000000000000000000000000000000000000000000900463ffffffff16806317456e561461009e5780631f241505146101c657806323a66b20146101dd5780634fb43dbb1461022e57806374d073a01461031457806389be5cbf1461037d578063aa0e365614610459578063aec5c4cd14610561578063c409123614610689575b600080fd5b3480156100aa57600080fd5b50610184600480360360408110156100c157600080fd5b81019080803590602001906401000000008111156100de57600080fd5b8201836020820111156100f057600080fd5b8035906020019184600183028401116401000000008311171561011257600080fd5b91908080601f016020809104026020016040519081016040528093929190818152602001838380828437600081840152601f19601f820116905080830192505050505050509192919290803573ffffffffffffffffffffffffffffffffffffffff169060200190929190505050610791565b604051808273ffffffffffffffffffffffffffffffffffffffff1673ffffffffffffffffffffffffffffffffffffffff16815260200191505060405180910390f35b3480156101d257600080fd5b506101db610974565b005b3480156101e957600080fd5b5061022c6004803603602081101561020057600080fd5b81019080803573ffffffffffffffffffffffffffffffffffffffff16906020019092919050505061097f565b005b34801561023a57600080fd5b506102fe6004803603604081101561025157600080fd5b810190808035906020019064010000000081111561026e57600080fd5b82018360208201111561028057600080fd5b803590602001918460018302840111640100000000831117156102a257600080fd5b91908080601f016020809104026020016040519081016040528093929190818152602001838380828437600081840152601f19601f82011690508083019250505050505050919291929080359060200190929190505050610a2e565b6040518082815260200191505060405180910390f35b34801561032057600080fd5b506103636004803603602081101561033757600080fd5b81019080803573ffffffffffffffffffffffffffffffffffffffff169060200190929190505050610bb7565b604051808215151515815260200191505060405180910390f35b34801561038957600080fd5b50610443600480360360208110156103a057600080fd5b81019080803590602001906401000000008111156103bd57600080fd5b8201836020820111156103cf57600080fd5b803590602001918460018302840111640100000000831117156103f157600080fd5b91908080601f016020809104026020016040519081016040528093929190818152602001838380828437600081840152601f19601f820116905080830192505050505050509192919290505050610bd4565b6040518082815260200191505060405180910390f35b34801561046557600080fd5b5061051f6004803603602081101561047c57600080fd5b810190808035906020019064010000000081111561049957600080fd5b8201836020820111156104ab57600080fd5b803590602001918460018302840111640100000000831117156104cd57600080fd5b91908080601f016020809104026020016040519081016040528093929190818152602001838380828437600081840152601f19601f820116905080830192505050505050509192919290505050610c49565b604051808273ffffffffffffffffffffffffffffffffffffffff1673ffffffffffffffffffffffffffffffffffffffff16815260200191505060405180910390f35b34801561056d57600080fd5b506106476004803603604081101561058457600080fd5b81019080803590602001906401000000008111156105a157600080fd5b8201836020820111156105b357600080fd5b803590602001918460018302840111640100000000831117156105d557600080fd5b91908080601f016020809104026020016040519081016040528093929190818152602001838380828437600081840152601f19601f820116905080830192505050505050509192919290803573ffffffffffffffffffffffffffffffffffffffff169060200190929190505050610cde565b604051808273ffffffffffffffffffffffffffffffffffffffff1673ffffffffffffffffffffffffffffffffffffffff16815260200191505060405180910390f35b34801561069557600080fd5b5061074f600480360360208110156106ac57600080fd5b81019080803590602001906401000000008111156106c957600080fd5b8201836020820111156106db57600080fd5b803590602001918460018302840111640100000000831117156106fd57600080fd5b91908080601f016020809104026020016040519081016040528093929190818152602001838380828437600081840152601f19601f820116905080830192505050505050509192919290505050610ec1565b604051808273ffffffffffffffffffffffffffffffffffffffff1673ffffffffffffffffffffffffffffffffffffffff16815260200191505060405180910390f35b600061079c33610bb7565b1515610836576040517f08c379a00000000000000000000000000000000000000000000000000000000081526004018080602001828103825260308152602001807f436f6e666967526f6c653a2063616c6c657220646f6573206e6f74206861766581526020017f2074686520436f6e66696720726f6c650000000000000000000000000000000081525060400191505060405180910390fd5b816003846040518082805190602001908083835b60208310151561086f578051825260208201915060208101905060208303925061084a565b6001836020036101000a038019825116818451168082178552505050505050905001915050908152602001604051809103902060006101000a81548173ffffffffffffffffffffffffffffffffffffffff021916908373ffffffffffffffffffffffffffffffffffffffff1602179055506003836040518082805190602001908083835b60208310151561091857805182526020820191506020810190506020830392506108f3565b6001836020036101000a038019825116818451168082178552505050505050905001915050908152602001604051809103902060009054906101000a900473ffffffffffffffffffffffffffffffffffffffff16905092915050565b61097d33610f56565b565b61098833610bb7565b1515610a22576040517f08c379a00000000000000000000000000000000000000000000000000000000081526004018080602001828103825260308152602001807f436f6e666967526f6c653a2063616c6c657220646f6573206e6f74206861766581526020017f2074686520436f6e66696720726f6c650000000000000000000000000000000081525060400191505060405180910390fd5b610a2b81610fb0565b50565b6000610a3933610bb7565b1515610ad3576040517f08c379a00000000000000000000000000000000000000000000000000000000081526004018080602001828103825260308152602001807f436f6e666967526f6c653a2063616c6c657220646f6573206e6f74206861766581526020017f2074686520436f6e66696720726f6c650000000000000000000000000000000081525060400191505060405180910390fd5b816001846040518082805190602001908083835b602083101515610b0c5780518252602082019150602081019050602083039250610ae7565b6001836020036101000a0380198251168184511680821785525050505050509050019150509081526020016040518091039020819055506001836040518082805190602001908083835b602083101515610b7b5780518252602082019150602081019050602083039250610b56565b6001836020036101000a038019825116818451168082178552505050505050905001915050908152602001604051809103902054905092915050565b6000610bcd82600061100a90919063ffffffff16565b9050919050565b60006001826040518082805190602001908083835b602083101515610c0e5780518252602082019150602081019050602083039250610be9565b6001836020036101000a0380198251168184511680821785525050505050509050019150509081526020016040518091039020549050919050565b60006002826040518082805190602001908083835b602083101515610c835780518252602082019150602081019050602083039250610c5e565b6001836020036101000a038019825116818451168082178552505050505050905001915050908152602001604051809103902060009054906101000a900473ffffffffffffffffffffffffffffffffffffffff169050919050565b6000610ce933610bb7565b1515610d83576040517f08c379a00000000000000000000000000000000000000000000000000000000081526004018080602001828103825260308152602001807f436f6e666967526f6c653a2063616c6c657220646f6573206e6f74206861766581526020017f2074686520436f6e66696720726f6c650000000000000000000000000000000081525060400191505060405180910390fd5b816002846040518082805190602001908083835b602083101515610dbc5780518252602082019150602081019050602083039250610d97565b6001836020036101000a038019825116818451168082178552505050505050905001915050908152602001604051809103902060006101000a81548173ffffffffffffffffffffffffffffffffffffffff021916908373ffffffffffffffffffffffffffffffffffffffff1602179055506002836040518082805190602001908083835b602083101515610e655780518252602082019150602081019050602083039250610e40565b6001836020036101000a038019825116818451168082178552505050505050905001915050908152602001604051809103902060009054906101000a900473ffffffffffffffffffffffffffffffffffffffff16905092915050565b60006003826040518082805190602001908083835b602083101515610efb5780518252602082019150602081019050602083039250610ed6565b6001836020036101000a038019825116818451168082178552505050505050905001915050908152602001604051809103902060009054906101000a900473ffffffffffffffffffffffffffffffffffffffff169050919050565b610f6a81600061112d90919063ffffffff16565b8073ffffffffffffffffffffffffffffffffffffffff167ffa4916915eacf8b6e0ee6ac8171bdacc0db148dced1dd16904e17d32a10b3eae60405160405180910390a250565b610fc481600061122f90919063ffffffff16565b8073ffffffffffffffffffffffffffffffffffffffff167f8bee45c273f264d9f17843d70b11b7113403f5aa55aff70f440a0f2bd847392a60405160405180910390a250565b60008073ffffffffffffffffffffffffffffffffffffffff168273ffffffffffffffffffffffffffffffffffffffff16141515156110d6576040517f08c379a00000000000000000000000000000000000000000000000000000000081526004018080602001828103825260228152602001807f526f6c65733a206163636f756e7420697320746865207a65726f20616464726581526020017f737300000000000000000000000000000000000000000000000000000000000081525060400191505060405180910390fd5b8260000160008373ffffffffffffffffffffffffffffffffffffffff1673ffffffffffffffffffffffffffffffffffffffff16815260200190815260200160002060009054906101000a900460ff16905092915050565b611137828261100a565b15156111d1576040517f08c379a00000000000000000000000000000000000000000000000000000000081526004018080602001828103825260218152602001807f526f6c65733a206163636f756e7420646f6573206e6f74206861766520726f6c81526020017f650000000000000000000000000000000000000000000000000000000000000081525060400191505060405180910390fd5b60008260000160008373ffffffffffffffffffffffffffffffffffffffff1673ffffffffffffffffffffffffffffffffffffffff16815260200190815260200160002060006101000a81548160ff0219169083151502179055505050565b611239828261100a565b1515156112ae576040517f08c379a000000000000000000000000000000000000000000000000000000000815260040180806020018281038252601f8152602001807f526f6c65733a206163636f756e7420616c72656164792068617320726f6c650081525060200191505060405180910390fd5b60018260000160008373ffffffffffffffffffffffffffffffffffffffff1673ffffffffffffffffffffffffffffffffffffffff16815260200190815260200160002060006101000a81548160ff021916908315150217905550505056fea165627a7a723058201b88f9825df2905ef54bdc8e92da3e89d9974d389c8397ae2c264c9194c070050029",
  "source": "pragma solidity ^0.5.0;\n\nimport \"./ConfigRole.sol\";\n\ncontract Config is ConfigRole{\t\n    mapping (string => uint256) config;\n    mapping (string => address) oracleAddress;\n    mapping (string => address) tokenAddress;\n    function getConfigValue(string memory key) public view returns (uint256) {\n        return config[key];\n    }\n    \n    function setConfigValue(string memory key, uint256 value) public onlyConfig returns (uint256) {\n        config[key] = value;\n        return config[key];\n    }\n    \n    function getOracleAddress(string memory key) public view returns (address) {\n        return oracleAddress[key];\n    }\n    \n    function setOracleAddress(string memory key, address value) public onlyConfig returns (address) {\n        oracleAddress[key] = value;\n        return oracleAddress[key];\n    }\n\n    function getTokenAddress(string memory key) public view returns (address) {\n        return tokenAddress[key];\n    }\n    \n    function setTokenAddress(string memory key, address value) public onlyConfig returns (address) {\n        tokenAddress[key] = value;\n        return tokenAddress[key];\n    }\n}\n",
  "sourcePath": "/Users/luoxiaojuan/Desktop/contract truffle/new-exchange/contracts/Config/Config.sol",
  "compiler": {
    "name": "solc",
    "version": "0.5.0+commit.1d4f565a.Emscripten.clang"
  },
  "schemaVersion": "3.0.20",
  "updatedAt": "2019-12-29T12:03:13.412Z",
  "networkType": "ethereum",
  "devdoc": {
    "methods": {}
  },
  "userdoc": {
    "methods": {}
  }
}