{
  "contractName": "MortgageBill",
  "abi": [
    {
      "inputs": [
        {
          "name": "_owner",
          "type": "address"
        },
        {
          "name": "tokenAddress",
          "type": "address"
        },
        {
          "name": "wethAddress",
          "type": "address"
        },
        {
          "name": "_config",
          "type": "address"
        },
        {
          "name": "_etherNumber",
          "type": "uint256"
        },
        {
          "name": "_orderID",
          "type": "uint256"
        },
        {
          "name": "_tokenNumber",
          "type": "uint256"
        }
      ],
      "payable": false,
      "stateMutability": "nonpayable",
      "type": "constructor"
    },
    {
      "payable": true,
      "stateMutability": "payable",
      "type": "fallback"
    },
    {
      "anonymous": false,
      "inputs": [
        {
          "indexed": false,
          "name": "x",
          "type": "uint256"
        },
        {
          "indexed": false,
          "name": "m",
          "type": "string"
        }
      ],
      "name": "Log",
      "type": "event"
    },
    {
      "anonymous": false,
      "inputs": [
        {
          "indexed": false,
          "name": "x",
          "type": "int256"
        },
        {
          "indexed": false,
          "name": "m",
          "type": "string"
        }
      ],
      "name": "Log",
      "type": "event"
    },
    {
      "constant": false,
      "inputs": [],
      "name": "fund",
      "outputs": [],
      "payable": true,
      "stateMutability": "payable",
      "type": "function"
    },
    {
      "constant": false,
      "inputs": [],
      "name": "repay",
      "outputs": [],
      "payable": true,
      "stateMutability": "payable",
      "type": "function"
    },
    {
      "constant": false,
      "inputs": [
        {
          "name": "_owner",
          "type": "address"
        }
      ],
      "name": "addMortgage",
      "outputs": [],
      "payable": true,
      "stateMutability": "payable",
      "type": "function"
    },
    {
      "constant": false,
      "inputs": [
        {
          "name": "to",
          "type": "address"
        },
        {
          "name": "ethVal",
          "type": "uint256"
        }
      ],
      "name": "liquid",
      "outputs": [],
      "payable": true,
      "stateMutability": "payable",
      "type": "function"
    },
    {
      "constant": true,
      "inputs": [],
      "name": "isAlive",
      "outputs": [
        {
          "name": "_alive",
          "type": "bool"
        }
      ],
      "payable": false,
      "stateMutability": "view",
      "type": "function"
    },
    {
      "constant": true,
      "inputs": [],
      "name": "isNormal",
      "outputs": [
        {
          "name": "_alive",
          "type": "bool"
        }
      ],
      "payable": false,
      "stateMutability": "view",
      "type": "function"
    },
    {
      "constant": true,
      "inputs": [],
      "name": "isUnsafe",
      "outputs": [
        {
          "name": "_alive",
          "type": "bool"
        }
      ],
      "payable": false,
      "stateMutability": "view",
      "type": "function"
    },
    {
      "constant": false,
      "inputs": [],
      "name": "intoUnsafe",
      "outputs": [],
      "payable": false,
      "stateMutability": "nonpayable",
      "type": "function"
    },
    {
      "constant": false,
      "inputs": [],
      "name": "intoRepayed",
      "outputs": [],
      "payable": false,
      "stateMutability": "nonpayable",
      "type": "function"
    },
    {
      "constant": true,
      "inputs": [],
      "name": "isLiquided",
      "outputs": [
        {
          "name": "_alive",
          "type": "bool"
        }
      ],
      "payable": false,
      "stateMutability": "view",
      "type": "function"
    },
    {
      "constant": false,
      "inputs": [],
      "name": "intoLiquided",
      "outputs": [],
      "payable": false,
      "stateMutability": "nonpayable",
      "type": "function"
    },
    {
      "constant": true,
      "inputs": [],
      "name": "getMortgageBill",
      "outputs": [
        {
          "name": "_owner",
          "type": "address"
        },
        {
          "name": "_creator",
          "type": "address"
        },
        {
          "name": "tokenAddress",
          "type": "address"
        },
        {
          "name": "wethAddress",
          "type": "address"
        },
        {
          "name": "_config",
          "type": "address"
        },
        {
          "name": "_etherNumber",
          "type": "uint256"
        },
        {
          "name": "_orderID",
          "type": "uint256"
        },
        {
          "name": "_tokenNumber",
          "type": "uint256"
        },
        {
          "name": "_alive",
          "type": "bool"
        }
      ],
      "payable": false,
      "stateMutability": "view",
      "type": "function"
    },
    {
      "constant": true,
      "inputs": [],
      "name": "getTokenNumber",
      "outputs": [
        {
          "name": "_tokenNumber",
          "type": "uint256"
        }
      ],
      "payable": false,
      "stateMutability": "view",
      "type": "function"
    },
    {
      "constant": true,
      "inputs": [],
      "name": "getEtherNumber",
      "outputs": [
        {
          "name": "_etherNumber",
          "type": "uint256"
        }
      ],
      "payable": false,
      "stateMutability": "view",
      "type": "function"
    },
    {
      "constant": true,
      "inputs": [],
      "name": "getTimeLock",
      "outputs": [
        {
          "name": "_timelock",
          "type": "uint256"
        }
      ],
      "payable": false,
      "stateMutability": "view",
      "type": "function"
    }
  ],
  "bytecode": "0x608060405234801561001057600080fd5b5060405160e08061150f833981018060405260e081101561003057600080fd5b8101908080519060200190929190805190602001909291908051906020019092919080519060200190929190805190602001909291908051906020019092919080519060200190929190505050336000806101000a81548173ffffffffffffffffffffffffffffffffffffffff021916908373ffffffffffffffffffffffffffffffffffffffff16021790555086600160006101000a81548173ffffffffffffffffffffffffffffffffffffffff021916908373ffffffffffffffffffffffffffffffffffffffff16021790555082600281905550816003819055508060048190555085600760006101000a81548173ffffffffffffffffffffffffffffffffffffffff021916908373ffffffffffffffffffffffffffffffffffffffff16021790555083600660006101000a81548173ffffffffffffffffffffffffffffffffffffffff021916908373ffffffffffffffffffffffffffffffffffffffff16021790555084600560016101000a81548173ffffffffffffffffffffffffffffffffffffffff021916908373ffffffffffffffffffffffffffffffffffffffff1602179055506001600560006101000a81548160ff021916908315150217905550600660009054906101000a900473ffffffffffffffffffffffffffffffffffffffff1673ffffffffffffffffffffffffffffffffffffffff166389be5cbf6040518163ffffffff167c01000000000000000000000000000000000000000000000000000000000281526004018080602001828103825260158152602001807f6d696e696d756d5f6d6f7274676167655f74696d65000000000000000000000081525060200191505060206040518083038186803b1580156102b157600080fd5b505afa1580156102c5573d6000803e3d6000fd5b505050506040513d60208110156102db57600080fd5b810190808051906020019092919050505042016008819055506000600960006101000a81548160ff021916908360ff160217905550505050505050506111e9806103266000396000f3fe6080604052600436106100db576000357c0100000000000000000000000000000000000000000000000000000000900463ffffffff1680630e9cf76d146100dd578063119a5e96146102205780631b4f2a7a1461024b578063402d8883146102625780634136aa351461026c57806347962f011461029b5780635480f36d146102b25780635f5ed598146102e157806360533e0e1461030c5780636feb354f146103375780638866eaec1461037b578063a34ad695146103aa578063b60d4288146103f8578063b8a6113d14610402578063cac1a6b914610431575b005b3480156100e957600080fd5b506100f2610448565b604051808a73ffffffffffffffffffffffffffffffffffffffff1673ffffffffffffffffffffffffffffffffffffffff1681526020018973ffffffffffffffffffffffffffffffffffffffff1673ffffffffffffffffffffffffffffffffffffffff1681526020018873ffffffffffffffffffffffffffffffffffffffff1673ffffffffffffffffffffffffffffffffffffffff1681526020018773ffffffffffffffffffffffffffffffffffffffff1673ffffffffffffffffffffffffffffffffffffffff1681526020018673ffffffffffffffffffffffffffffffffffffffff1673ffffffffffffffffffffffffffffffffffffffff16815260200185815260200184815260200183815260200182151515158152602001995050505050505050505060405180910390f35b34801561022c57600080fd5b5061023561053a565b6040518082815260200191505060405180910390f35b34801561025757600080fd5b50610260610544565b005b61026a6105de565b005b34801561027857600080fd5b5061028161091b565b604051808215151515815260200191505060405180910390f35b3480156102a757600080fd5b506102b0610932565b005b3480156102be57600080fd5b506102c76109cc565b604051808215151515815260200191505060405180910390f35b3480156102ed57600080fd5b506102f66109e9565b6040518082815260200191505060405180910390f35b34801561031857600080fd5b506103216109f3565b6040518082815260200191505060405180910390f35b6103796004803603602081101561034d57600080fd5b81019080803573ffffffffffffffffffffffffffffffffffffffff1690602001909291905050506109fd565b005b34801561038757600080fd5b50610390610c1b565b604051808215151515815260200191505060405180910390f35b6103f6600480360360408110156103c057600080fd5b81019080803573ffffffffffffffffffffffffffffffffffffffff16906020019092919080359060200190929190505050610c37565b005b610400610fc7565b005b34801561040e57600080fd5b506104176110c3565b604051808215151515815260200191505060405180910390f35b34801561043d57600080fd5b506104466110e0565b005b6000806000806000806000806000600160009054906101000a900473ffffffffffffffffffffffffffffffffffffffff166000809054906101000a900473ffffffffffffffffffffffffffffffffffffffff16600760009054906101000a900473ffffffffffffffffffffffffffffffffffffffff16600560019054906101000a900473ffffffffffffffffffffffffffffffffffffffff16600660009054906101000a900473ffffffffffffffffffffffffffffffffffffffff16600254600354600454600560009054906101000a900460ff16985098509850985098509850985098509850909192939495969798565b6000600854905090565b3373ffffffffffffffffffffffffffffffffffffffff166000809054906101000a900473ffffffffffffffffffffffffffffffffffffffff1673ffffffffffffffffffffffffffffffffffffffff1614151561059f57600080fd5b6000600960009054906101000a900460ff1660ff161415156105c057600080fd5b6001600960006101000a81548160ff021916908360ff160217905550565b600854428110151561067e576040517f08c379a00000000000000000000000000000000000000000000000000000000081526004018080602001828103825260238152602001807f74696d656c6f636b2074696d65206d75737420626520696e207468652066757481526020017f757265000000000000000000000000000000000000000000000000000000000081525060400191505060405180910390fd5b3373ffffffffffffffffffffffffffffffffffffffff166000809054906101000a900473ffffffffffffffffffffffffffffffffffffffff1673ffffffffffffffffffffffffffffffffffffffff161415156106d957600080fd5b6000600560019054906101000a900473ffffffffffffffffffffffffffffffffffffffff1673ffffffffffffffffffffffffffffffffffffffff166370a08231306040518263ffffffff167c0100000000000000000000000000000000000000000000000000000000028152600401808273ffffffffffffffffffffffffffffffffffffffff1673ffffffffffffffffffffffffffffffffffffffff16815260200191505060206040518083038186803b15801561079657600080fd5b505afa1580156107aa573d6000803e3d6000fd5b505050506040513d60208110156107c057600080fd5b81019080805190602001909291905050509050600560019054906101000a900473ffffffffffffffffffffffffffffffffffffffff1673ffffffffffffffffffffffffffffffffffffffff16632e1a7d4d826040518263ffffffff167c010000000000000000000000000000000000000000000000000000000002815260040180828152602001915050600060405180830381600087803b15801561086457600080fd5b505af1158015610878573d6000803e3d6000fd5b50505050600160009054906101000a900473ffffffffffffffffffffffffffffffffffffffff1673ffffffffffffffffffffffffffffffffffffffff166108fc3073ffffffffffffffffffffffffffffffffffffffff16319081150290604051600060405180830381858888f193505050501580156108fb573d6000803e3d6000fd5b506000600560006101000a81548160ff0219169083151502179055505050565b6000600560009054906101000a900460ff16905090565b3373ffffffffffffffffffffffffffffffffffffffff166000809054906101000a900473ffffffffffffffffffffffffffffffffffffffff1673ffffffffffffffffffffffffffffffffffffffff1614151561098d57600080fd5b6000600960009054906101000a900460ff1660ff161415156109ae57600080fd5b6003600960006101000a81548160ff021916908360ff160217905550565b60006001600960009054906101000a900460ff1660ff1614905090565b6000600454905090565b6000600254905090565b6008544281101515610a9d576040517f08c379a00000000000000000000000000000000000000000000000000000000081526004018080602001828103825260238152602001807f74696d656c6f636b2074696d65206d75737420626520696e207468652066757481526020017f757265000000000000000000000000000000000000000000000000000000000081525060400191505060405180910390fd5b3373ffffffffffffffffffffffffffffffffffffffff166000809054906101000a900473ffffffffffffffffffffffffffffffffffffffff1673ffffffffffffffffffffffffffffffffffffffff16148015610af95750600034115b8015610b5257508173ffffffffffffffffffffffffffffffffffffffff16600160009054906101000a900473ffffffffffffffffffffffffffffffffffffffff1673ffffffffffffffffffffffffffffffffffffffff16145b1515610b5d57600080fd5b610b723460025461117a90919063ffffffff16565b600281905550600560019054906101000a900473ffffffffffffffffffffffffffffffffffffffff1673ffffffffffffffffffffffffffffffffffffffff1663d0e30db0346040518263ffffffff167c01000000000000000000000000000000000000000000000000000000000281526004016000604051808303818588803b158015610bfe57600080fd5b505af1158015610c12573d6000803e3d6000fd5b50505050505050565b600080600960009054906101000a900460ff1660ff1614905090565b6008544281101515610cd7576040517f08c379a00000000000000000000000000000000000000000000000000000000081526004018080602001828103825260238152602001807f74696d656c6f636b2074696d65206d75737420626520696e207468652066757481526020017f757265000000000000000000000000000000000000000000000000000000000081525060400191505060405180910390fd5b3373ffffffffffffffffffffffffffffffffffffffff166000809054906101000a900473ffffffffffffffffffffffffffffffffffffffff1673ffffffffffffffffffffffffffffffffffffffff16141515610d3257600080fd5b6000600560019054906101000a900473ffffffffffffffffffffffffffffffffffffffff1673ffffffffffffffffffffffffffffffffffffffff166370a08231306040518263ffffffff167c0100000000000000000000000000000000000000000000000000000000028152600401808273ffffffffffffffffffffffffffffffffffffffff1673ffffffffffffffffffffffffffffffffffffffff16815260200191505060206040518083038186803b158015610def57600080fd5b505afa158015610e03573d6000803e3d6000fd5b505050506040513d6020811015610e1957600080fd5b81019080805190602001909291905050509050828110151515610e3b57600080fd5b600560019054906101000a900473ffffffffffffffffffffffffffffffffffffffff1673ffffffffffffffffffffffffffffffffffffffff16632e1a7d4d826040518263ffffffff167c010000000000000000000000000000000000000000000000000000000002815260040180828152602001915050600060405180830381600087803b158015610ecc57600080fd5b505af1158015610ee0573d6000803e3d6000fd5b505050508373ffffffffffffffffffffffffffffffffffffffff166108fc849081150290604051600060405180830381858888f19350505050158015610f2a573d6000803e3d6000fd5b50600160009054906101000a900473ffffffffffffffffffffffffffffffffffffffff1673ffffffffffffffffffffffffffffffffffffffff166108fc610f7a858461119b90919063ffffffff16565b9081150290604051600060405180830381858888f19350505050158015610fa5573d6000803e3d6000fd5b506000600560006101000a81548160ff02191690831515021790555050505050565b3373ffffffffffffffffffffffffffffffffffffffff166000809054906101000a900473ffffffffffffffffffffffffffffffffffffffff1673ffffffffffffffffffffffffffffffffffffffff1614151561102257600080fd5b600560019054906101000a900473ffffffffffffffffffffffffffffffffffffffff1673ffffffffffffffffffffffffffffffffffffffff1663d0e30db0346040518263ffffffff167c01000000000000000000000000000000000000000000000000000000000281526004016000604051808303818588803b1580156110a857600080fd5b505af11580156110bc573d6000803e3d6000fd5b5050505050565b60006002600960009054906101000a900460ff1660ff1614905090565b3373ffffffffffffffffffffffffffffffffffffffff166000809054906101000a900473ffffffffffffffffffffffffffffffffffffffff1673ffffffffffffffffffffffffffffffffffffffff1614151561113b57600080fd5b6001600960009054906101000a900460ff1660ff1614151561115c57600080fd5b6002600960006101000a81548160ff021916908360ff160217905550565b600080828401905083811015151561119157600080fd5b8091505092915050565b60008282111515156111ac57600080fd5b60008284039050809150509291505056fea165627a7a7230582062f10ea7c77c2b6dcfb4dc765883cc1a3248311b2bd09d40d39743f46b429ee00029",
  "source": "pragma solidity ^0.5.0;\n\nimport \"./EIP20Interface.sol\";\nimport \"./WrappedEtherInterface.sol\";\nimport \"./IOracle.sol\";\nimport \"./SafeMath.sol\";\nimport \"./ConfigInterface.sol\";\n\ncontract MortgageBill {\n    using SafeMath for uint;\n    uint constant expScale = 10**18;\n    address creator;\n    address payable owner;\n    uint256 etherNumber; \n    uint256 orderID;\n    uint256 tokenNumber;\n    bool alive;\n    WrappedEtherInterface weth;\n    ConfigInterface config;\n    EIP20Interface borrowedToken;\n    uint timelock;\n    uint8 status; //0:normal 1:unsafe into liquid 2:liquided 3:repayed\n    \n    event Log(uint x, string m);\n    event Log(int x, string m);\n\n    modifier futureTimelock(uint _time) {\n        // only requirement is the timelock time is after the last blocktime (now).\n        // probably want something a bit further in the future then this.\n        // but this is still a useful sanity check:\n        require(_time < now, \"timelock time must be in the future\");\n        _;\n    }\n\n    constructor (address payable _owner, address tokenAddress, address wethAddress,\n     address _config, uint256 _etherNumber, uint256 _orderID, uint256 _tokenNumber) public {\n        creator = msg.sender;\n        owner = _owner;\n        etherNumber = _etherNumber; \n        orderID = _orderID;\n        tokenNumber = _tokenNumber;\n        borrowedToken = EIP20Interface(tokenAddress);\n        config = ConfigInterface(_config);\n        weth = WrappedEtherInterface(wethAddress);\n        alive = true;\n        timelock = now + config.getConfigValue(\"minimum_mortgage_time\");\n        status = 0;\n    }\n\n    /*\n    @dev called from borrow factory, wraps eth and supplies weth, then borrows\n        the token at address supplied in constructor\n    */\n    //抵押\n    function fund() payable external {\n        require(creator == msg.sender);\n        weth.deposit.value(msg.value)();       \n    }\n\n\n    /* @dev the factory contract will transfer tokens necessary to repay */\n    //偿还\n    function repay() payable external  futureTimelock(timelock) {\n        require(creator == msg.sender);\n\n        /* ---------- return ether to user ---------*/\n        uint wethBalance = weth.balanceOf(address(this));\n        weth.withdraw(wethBalance);\n        owner.transfer(address(this).balance);\n        alive = false;\n    }\n\n    function addMortgage(address _owner) payable external futureTimelock(timelock) {\n        require(creator == msg.sender && msg.value > 0 && owner == _owner);\n        etherNumber = etherNumber.add(msg.value);\n        weth.deposit.value(msg.value)();\n    }\n    \n    function liquid(address payable to, uint256 ethVal) payable external futureTimelock(timelock) {\n        require(creator == msg.sender);\n\n        /* ---------- return ether to user ---------*/\n        uint wethBalance = weth.balanceOf(address(this));\n        require(wethBalance >= ethVal);\n        weth.withdraw(wethBalance);\n        to.transfer(ethVal);\n        owner.transfer(wethBalance.sub(ethVal));\n        alive = false;\n    }\n    /* @dev it is necessary to accept eth to unwrap weth */\n    function () external payable {}\n\n\n    function isAlive() view external returns(bool _alive) {\n        return alive;\n    }\n    \n    function isNormal() view external returns(bool _alive) {\n        return status == 0;\n    }\n    \n    function isUnsafe() view external returns(bool _alive) {\n        return status == 1;\n    }\n    \n    function intoUnsafe() external {\n        require(creator == msg.sender);\n        require(status == 0);\n        status = 1;\n    }\n    \n    function intoRepayed() external {\n        require(creator == msg.sender);\n        require(status == 0);\n        status = 3;\n    }\n\n    function isLiquided() view external returns(bool _alive) {\n        return status == 2;\n    }\n    \n    function intoLiquided() external {\n        require(creator == msg.sender);\n        require(status == 1);\n        status = 2;\n    }\n    \n    function getMortgageBill() view external returns(address payable _owner, address _creator, address tokenAddress, address wethAddress,\n     address _config, uint256 _etherNumber, uint256 _orderID, uint256 _tokenNumber,bool _alive) {\n        return (owner,creator,address(borrowedToken),address(weth),address(config),etherNumber,orderID,tokenNumber,alive);\n    }\n\n    function getTokenNumber() view external returns(uint256 _tokenNumber) {\n        return tokenNumber;\n    }\n\n    function getEtherNumber() view external returns(uint256 _etherNumber) {\n        return etherNumber;\n    }\n\n    function getTimeLock() view external returns(uint256 _timelock) {\n        return timelock;\n    }\n    \n}\n",
  "sourcePath": "/Users/luoxiaojuan/Desktop/contract truffle/new-exchange/contracts/Mortgage/MortgageBill.sol",
  "compiler": {
    "name": "solc",
    "version": "0.5.0+commit.1d4f565a.Emscripten.clang"
  },
  "schemaVersion": "3.0.20",
  "updatedAt": "2019-12-29T12:03:07.313Z",
  "devdoc": {
    "methods": {}
  },
  "userdoc": {
    "methods": {}
  }
}